:100000000C9435000C945D000C945D000C945D0024
:100010000C945D000C945D000C945D000C945D00EC
:100020000C945D000C945D000C945D000C945D00DC
:100030000C945D000C945D000C945D000C945D00CC
:100040000C945D000C945D000C94BD040C9497041A
:100050000C945D000C945D000C945D000C945D00AC
:100060000C945D000C945D00F10411241FBECFEFD1
:10007000D8E0DEBFCDBF11E0A0E0B1E0EEECFDE0E6
:1000800002C005900D92AE3DB107D9F722E0AEED6A
:10009000B1E001C01D92A23BB207E1F710E0C5E359
:1000A000D0E004C02197FE010E94D006C433D107DE
:1000B000C9F70E941E050C94E5060C940000AF924F
:1000C000BF92CF92DF92EF92FF920F931F93CF9345
:1000D000DF936C017B018B01040F151FEB015E01A7
:1000E000AE18BF08C017D10759F06991D601ED913C
:1000F000FC910190F081E02DC6010995892B79F7DB
:10010000C501DF91CF911F910F91FF90EF90DF908C
:10011000CF90BF90AF900895FC01538D448D252F53
:1001200030E0842F90E0821B930B541710F0CF9691
:10013000089501970895FC01918D828D981761F0C3
:10014000A28DAE0FBF2FB11D5D968C91928D9F5FDA
:100150009F73928F90E008958FEF9FEF0895FC01B9
:10016000918D828D981731F0828DE80FF11D858D6C
:1001700090E008958FEF9FEF0895FC01918D228DFF
:10018000892F90E0805C9F4F821B91098F73992784
:100190000895FC01A48DA80FB92FB11DA35ABF4F1C
:1001A0002C91848D90E001968F739927848FA68976
:1001B000B7892C93A089B1898C91837080648C93CA
:1001C000938D848D981306C00288F389E02D808179
:1001D0008F7D80830895EF92FF920F931F93CF93AB
:1001E000DF93EC0181E0888F9B8D8C8D98131AC072
:1001F000E889F989808185FF15C09FB7F894EE8959
:10020000FF896083E889F9898081837080648083B5
:100210009FBF81E090E0DF91CF911F910F91FF9000
:10022000EF900895F62E0B8D10E00F5F1F4F0F73A8
:100230001127E02E8C8D8E110CC00FB607FCFACF63
:10024000E889F989808185FFF5CFCE010E94C90038
:10025000F1CFEB8DEC0FFD2FF11DE35AFF4FF08234
:100260009FB7F8940B8FEA89FB8980818062CFCF9A
:10027000CF93DF93EC01888D8823B9F0AA89BB89DD
:10028000E889F9898C9185FD03C0808186FD0DC0C8
:100290000FB607FCF7CF8C9185FFF2CF808185FFE9
:1002A000EDCFCE010E94C900E9CFDF91CF91089533
:1002B000FC0182859385DC01AA0FBB1FAE0FBF1F17
:1002C0002D913C91019665E070E00E947B0693873A
:1002D0008287C9010895682F8EED91E00C94EB00A0
:1002E000CF92DF92EF92FF92CF936B017C01493066
:1002F0000CF048E0CFEFC40FCF3F31F4CF91FF9027
:10030000EF90DF90CF90089524E0C29FC0011124A8
:10031000A701960104C056954795379527958A956C
:10032000D2F7C9018F7099278A30910534F4805D26
:1003300090E00E946B01C150DFCF895CF9CFCF9371
:10034000DF93EC018991811103C0DF91CF91089572
:1003500090EE980F9F3530F4082E000C990B0E94F8
:100360006B01F0CF8D3039F48CE590E00E946B0189
:1003700082E790E0F4CF8A3039F48CE590E00E9477
:100380006B018EE690E0EBCF8CE590E00E946B0174
:1003900088E790E00E946B01FE0131976081062E94
:1003A000000C770B880B990B42E00E947001CACFBA
:1003B000009711F00C949F0108954F925F926F92F5
:1003C0007F928F929F92AF92BF92CF92DF92EF92E5
:1003D000FF922B013C01C12CD12C7601C394C301A7
:1003E000B201A70196010E948F062A30310541050E
:1003F000510580F58AE0882E912CA12CB12CC301E7
:10040000B201A70196010E948F06CA01B901A50198
:1004100094010E948F06605D862F90E00E946B0120
:10042000C701B601A50194010E948F0669017A01F6
:10043000C114D104E104F10411F7FF90EF90DF90B3
:10044000CF90BF90AF909F908F907F906F905F9074
:100450004F900895AAE0B0E0A70196010E94B1066E
:100460006B017C01BCCFCF92DF92EF92FF926B01C8
:100470007C01F7FE0CC08DE290E00E946B01F094CD
:10048000E094D094C094C11CD11CE11CF11CC701A4
:10049000B601FF90EF90DF90CF900C94DD01CF92EA
:1004A000DF92EF92FF926A017B010E94D8018AE3FA
:1004B00090E00E946B01C701B6010E9433028AE3FB
:1004C00090E00E946B0180917D0290917E020E94DB
:1004D000D8018AE390E0FF90EF90DF90CF900C94EA
:1004E0006B014F925F926F927F928F929F92AF9229
:1004F000BF92EF92FF920F931F932B013C01490192
:100500005A01B801A7018091930290919402A091A1
:100510009502B0919602892B8A2B8B2B61F48091E6
:10052000970290919802A0919902B0919A02892B1A
:100530008A2B8B2B31F061E070E08BE992E00E9416
:100540005A06481459046A047B0479F180917B02AD
:1005500090917C020E944F0287E691E00E949F01E9
:100560008AE390E00E946B0182E791E00E949F0184
:10057000C301B2010E94EF048CE691E00E949F014A
:10058000C501B4010E94EF0481E090E0A0E0B0E07A
:100590008093930290939402A0939502B093960255
:1005A0008EED91E00E943801C6CF1F910F91FF9010
:1005B000EF90BF90AF909F908F907F906F905F90E3
:1005C0004F900895EF92FF920F931F93CF93DF9375
:1005D000CDB7DEB72E970FB6F894DEBF0FBECDBFF6
:1005E0001C861B8681E090E09A83898382E090E0FC
:1005F0009C838B839E878D87CE0101960E94580134
:100600008D859E85FC01EE0FFF1F21E030E02C0F51
:100610003D1FE20FF31F23E030E03183208301967A
:1006200065E070E00E947B069E878D87CE01019673
:100630000E9458019C01990F440B550B10E1E12ECB
:10064000F12C00E010E062E070E080E090E00E94B9
:100650007102CE0101960E9458019C01990F440B32
:10066000550B11E1E12EF12C00E010E063E070E0A9
:1006700080E090E00E9471022E960FB6F894DEBFE3
:100680000FBECDBFDF91CF911F910F91FF90EF90E3
:100690000895EF92FF920F931F93CF93DF93CDB7FF
:1006A000DEB72E970FB6F894DEBF0FBECDBF1C8607
:1006B0001B8681E090E09A8389839E878D87CE0197
:1006C00001960E9458019C01990F440B550B1DE2A5
:1006D000E12EF12C00E010E061E070E080E090E0BD
:1006E0000E9471022E960FB6F894DEBF0FBECDBFEA
:1006F000DF91CF911F910F91FF90EF900895AB0183
:10070000BC018091930290919402A0919502B091C6
:100710009602892B8A2B8B2B61F480919702909102
:100720009802A0919902B0919A02892B8A2B8B2B67
:1007300031F061E070E08BE992E00E945A0680910E
:100740007B0290917C020E944F0287E691E00E941A
:100750009F018AE390E00E946B0180917F0290915B
:100760008002892BF1F08DE591E00E949F0180913C
:100770007F02909180020E94D80180918102909125
:100780008202892B51F082E591E00E949F018091C5
:100790008102909182020E94D8018FE491E00E9430
:1007A0009F018DE791E00E949F0181E090E0A0E031
:1007B000B0E08093930290939402A0939502B0933B
:1007C00096028EED91E00E943801B3CF0895CF9349
:1007D000DF93CDB7DEB72E970FB6F894DEBF0FBE0E
:1007E000CDBF1C861B8681E090E09A83898382E0DE
:1007F00090E09C838B839E878D87CE0101960E941B
:100800005801CE0101960E9458012B853C858D85AB
:100810009E852817390731F061E270E080E090E0B2
:100820000E947F032E960FB6F894DEBF0FBECDBF99
:10083000DF91CF910895CF93DF9300D0CDB7DEB78E
:100840009A838983EBE7F2E073836283052E000CC1
:10085000660B770B40875187628773878485958500
:10086000A685B7850196A11DB11D84879587A687AA
:10087000B78715821482178216828BE992E00E9454
:100880003A06892B19F4E981FA8109958BE992E0FE
:100890000E943A06EBE7F2E0848D958DA68DB78D28
:1008A000892B8A2B8B2B11F184899589A689B7898D
:1008B0000196A11DB11D848B958BA68BB78BEBE7A1
:1008C000F2E0108E118E128E138E148E158E168EEF
:1008D000178E8AE090E00E946B018EED91E00E94FD
:1008E00038010F900F90DF91CF910895808D918DF9
:1008F000A28DB38D892B8A2B8B2B69F44085518572
:1009000062857385808191810E944F0288E391E026
:100910000E949F01D4CF80899189A289B3890196D1
:10092000A11DB11D808B918BA28BB38BC8CF1F9261
:100930000F920FB60F9211242F933F934F935F9313
:100940006F937F938F939F93AF93BF93EF93FF9397
:100950008EED91E00E94C900FF91EF91BF91AF91A0
:100960009F918F917F916F915F914F913F912F91C7
:100970000F900FBE0F901F9018951F920F920FB6F9
:100980000F9211242F938F939F93EF93FF93E091F6
:10099000EE01F091EF018081E091F401F091F50119
:1009A00082FD1BC090818091F7018F5F8F73209132
:1009B000F801821741F0E091F701F0E0E252FE4FBA
:1009C000958F8093F701FF91EF919F918F912F91D8
:1009D0000F900FBE0F901F9018958081F4CF0C944C
:1009E0003302EEEDF1E01382128288EE93E0A0E094
:1009F000B0E084839583A683B78381E491E09183FB
:100A0000808385EC90E09587848784EC90E09787DD
:100A1000868780EC90E0918B808B81EC90E0938BCB
:100A2000828B82EC90E0958B848B86EC90E0978BA8
:100A3000868B118E128E138E148E08952FEF87EAF7
:100A400091E6215080409040E1F700C0000086E927
:100A500091E090937C0280937B0210927E02109230
:100A60007D021092830210928402109285021092ED
:100A700086021092870210928802109289021092C8
:100A80008A0210928B0210928C0210928D021092A8
:100A90008E0210928F021092900210929102109288
:100AA0009202109293021092940210929502109268
:100AB0009602109297021092980210929902109248
:100AC0009A021092800210927F021092820210927B
:100AD0008102E091EE01F091EF0182E08083E091EC
:100AE000EA01F091EB011082E091EC01F091ED014F
:100AF00080E180831092F601E091F201F091F30120
:100B000086E08083E091F001F091F10180818061C5
:100B10008083E091F001F091F10180818860808311
:100B2000E091F001F091F101808180688083E09193
:100B3000F001F091F10180818F7D808349E450E0E4
:100B400069EA71E082EE92E00E941B044AE450E000
:100B50006AEB71E087EE93E00E941B044CE450E0E6
:100B600069EC71E089E493E00E941B044DE450E0DD
:100B700062ED71E086EE93E00E941B048AE090E053
:100B80000E946B0180E291E00E949F018AE090E068
:100B90000E946B01609187027091880280918902A6
:100BA00090918A020E94330288E191E00E949F01A5
:100BB00060918B0270918C0280918D0290918E02D7
:100BC0000E9433028DE091E00E949F0160918F02AC
:100BD0007091900280919102909192020E94330252
:100BE00083E091E00E949F018AE090E00E946B0107
:100BF00080918B0290918C02A0918D02B0918E0217
:100C0000892B8A2B8B2B99F580E091E00E949F0124
:100C10008AE090E00E946B018EED91E00E94380125
:100C20008EED91E00E943801E091F001F091F10128
:100C300080818F7E8083E091F001F091F1018081CD
:100C4000877F8083E091F001F091F10180818F77BF
:100C50008083E091F001F091F10180818F7D8083AC
:100C60008091F8018093F70190E080E0089587E695
:100C700091E0CCCFDC012D923D924D925D926D9230
:100C80007D928D929D92AD92BD92CD92DD92ED922C
:100C9000FD920D931D93CD93DD93FF91EF918DB751
:100CA0008D938EB78D938FB78D93ED93FD9388279A
:100CB00099270994DC01CB0181309105811D2D908C
:100CC0003D904D905D906D907D908D909D90AD90FC
:100CD000BD90CD90DD90ED90FD900D911D91CD9149
:100CE000DD91ED91FD910D90F894FEBF0FBEEDBF2B
:100CF000ED91FD91099497FB072E16F4009407D00F
:100D000077FD09D00E94BC0607FC05D03EF4909503
:100D100081959F4F0895709561957F4F0895A1E249
:100D20001A2EAA1BBB1BFD010DC0AA1FBB1FEE1F65
:100D3000FF1FA217B307E407F50720F0A21BB30BB0
:100D4000E40BF50B661F771F881F991F1A9469F72C
:100D500060957095809590959B01AC01BD01CF0188
:100D600008950E94D606A59F900DB49F900DA49F54
:100D7000800D911D11240895AA1BBB1B51E107C0D2
:100D8000AA1FBB1FA617B70710F0A61BB70B881F1B
:100D9000991F5A95A9F780959095BC01CD010895AA
:100DA000EE0FFF1F0590F491E02D0994A29FB00172
:100DB000B39FC001A39F700D811D1124911DB29F8F
:0E0DC000700D811D1124911D0895F894FFCF30
:100DCE004F4B002049676E6F7265642000204661AC
:100DDE00696C7572657320002054657374732000FE
:100DEE002D2D2D2D2D2D2D2D2D2D2D2D2D2D2D2D25
:100DFE002D2D2D2D2D2D2D00504153530000000073
:100E0E0000EB005F008C003801BD009B00AF002E90
:100E1E00200020417267756D656E74200046756EF8
:100E2E006374696F6E20004641494C002057617310
:100E3E002000204578706563746564200020457835
:100E4E007065637465642054525545205761732054
:100E5E0046414C534500746573745C746573745FDE
:100E6E006D61696E2E63707000746573745F6E6F62
:100E7E00726D616C5F666C6F7700746573745F750D
:100E8E006E646572666C6F7700746573745F676508
:0E0E9E007400746573745F7265736574000090
:00000001FF
