:100000000C9435000C945D000C945D000C945D0024
:100010000C945D000C945D000C945D000C945D00EC
:100020000C945D000C945D000C945D000C945D00DC
:100030000C945D000C945D000C945D000C945D00CC
:100040000C945D000C945D000C9429070C9403073C
:100050000C945D000C945D000C945D000C945D00AC
:100060000C945D000C945D005D0711241FBECFEF62
:10007000D8E0DEBFCDBF12E0A0E0B1E0E6EEF2E1F5
:1000800002C005900D92A031B107D9F722E0A0E19E
:10009000B2E001C01D92A43EB207E1F710E0C5E353
:1000A000D0E004C02197FE010E945C09C433D1074F
:1000B000C9F70E948A070C9471090C940000AF9252
:1000C000BF92CF92DF92EF92FF920F931F93CF9345
:1000D000DF936C017B018B01040F151FEB015E01A7
:1000E000AE18BF08C017D10759F06991D601ED913C
:1000F000FC910190F081E02DC6010995892B79F7DB
:10010000C501DF91CF911F910F91FF90EF90DF908C
:10011000CF90BF90AF900895FC01538D448D252F53
:1001200030E0842F90E0821B930B541710F0CF9691
:10013000089501970895FC01918D828D981761F0C3
:10014000A28DAE0FBF2FB11D5D968C91928D9F5FDA
:100150009F73928F90E008958FEF9FEF0895FC01B9
:10016000918D828D981731F0828DE80FF11D858D6C
:1001700090E008958FEF9FEF0895FC01918D228DFF
:10018000892F90E0805C9F4F821B91098F73992784
:100190000895FC01A48DA80FB92FB11DA35ABF4F1C
:1001A0002C91848D90E001968F739927848FA68976
:1001B000B7892C93A089B1898C91837080648C93CA
:1001C000938D848D981306C00288F389E02D808179
:1001D0008F7D80830895EF92FF920F931F93CF93AB
:1001E000DF93EC0181E0888F9B8D8C8D98131AC072
:1001F000E889F989808185FF15C09FB7F894EE8959
:10020000FF896083E889F9898081837080648083B5
:100210009FBF81E090E0DF91CF911F910F91FF9000
:10022000EF900895F62E0B8D10E00F5F1F4F0F73A8
:100230001127E02E8C8D8E110CC00FB607FCFACF63
:10024000E889F989808185FFF5CFCE010E94C90038
:10025000F1CFEB8DEC0FFD2FF11DE35AFF4FF08234
:100260009FB7F8940B8FEA89FB8980818062CFCF9A
:10027000CF93DF93EC01888D8823B9F0AA89BB89DD
:10028000E889F9898C9185FD03C0808186FD0DC0C8
:100290000FB607FCF7CF8C9185FFF2CF808185FFE9
:1002A000EDCFCE010E94C900E9CFDF91CF91089533
:1002B0000F931F93CF93DF93FC018B01248535852A
:1002C000C685D785C901019665E070E00E940709DF
:1002D000428553852417350791F4209781F0938741
:1002E0008287220F331FDF01A20FB31F0D931C93D0
:1002F00095878487DF91CF911F910F910895219663
:10030000D787C687EECFFC0182859385DC01AA0FD3
:10031000BB1FAE0FBF1F2D913C912115310561F020
:10032000019665E070E00E940709938782878685C1
:100330009785019797878687C9010895682F80E17F
:1003400092E00C94EB00CF92DF92EF92FF92CF936A
:100350006B017C0149300CF048E0CFEFC40FCF3F78
:1003600031F4CF91FF90EF90DF90CF90089524E08B
:10037000C29FC0011124A701960104C0569547955C
:10038000379527958A95D2F7C9018F7099278A30BA
:10039000910534F4805D90E00E949E01C150DFCF52
:1003A000895CF9CFCF93DF93EC018991811103C070
:1003B000DF91CF91089590EE980F9F3530F4082E7D
:1003C000000C990B0E949E01F0CF8D3039F48CE522
:1003D00090E00E949E0182E790E0F4CF8A3039F4E9
:1003E0008CE590E00E949E018EE690E0EBCF8CE5DC
:1003F00090E00E949E0188E790E00E949E01FE012D
:1004000031976081062E000C770B880B990B42E028
:100410000E94A301CACF009711F00C94D201089555
:100420004F925F926F927F928F929F92AF92BF9204
:10043000CF92DF92EF92FF922B013C01C12CD12C85
:100440007601C394C301B201A70196010E941B0962
:100450002A3031054105510580F58AE0882E912C1E
:10046000A12CB12CC301B201A70196010E941B0966
:10047000CA01B901A50194010E941B09605D862F84
:1004800090E00E949E01C701B601A50194010E945F
:100490001B0969017A01C114D104E104F10411F7C7
:1004A000FF90EF90DF90CF90BF90AF909F908F9094
:1004B0007F906F905F904F900895AAE0B0E0A70101
:1004C00096010E943D096B017C01BCCFCF92DF9267
:1004D000EF92FF926B017C01F7FE0CC08DE290E081
:1004E0000E949E01F094E094D094C094C11CD11C51
:1004F000E11CF11CC701B601FF90EF90DF90CF9097
:100500000C941002CF92DF92EF92FF926A017B016E
:100510000E940B028AE390E00E949E01C701B6018F
:100520000E9466028AE390E00E949E018091AF02E1
:100530009091B0020E940B028AE390E0FF90EF904E
:10054000DF90CF900C949E014F925F926F927F92BA
:100550008F929F92AF92BF92EF92FF920F931F9351
:100560002B013C0149015A01B801A7018091C50244
:100570009091C602A091C702B091C802892B8A2B24
:100580008B2B61F48091C9029091CA02A091CB0299
:10059000B091CC02892B8A2B8B2B31F061E070E07B
:1005A0008DEC92E00E94E608481459046A047B042A
:1005B00079F18091AD029091AE020E94820287E6AD
:1005C00091E00E94D2018AE390E00E949E0182E7BE
:1005D00091E00E94D201C301B2010E945B078CE648
:1005E00091E00E94D201C501B4010E945B0781E045
:1005F00090E0A0E0B0E08093C5029093C602A09383
:10060000C702B093C80280E192E00E943801C6CFD1
:100610001F910F91FF90EF90BF90AF909F908F90A0
:100620007F906F905F904F900895EF92FF920F939D
:100630001F93CF93DF93CDB7DEB760970FB6F894D3
:10064000DEBF0FBECDBF1C861B861E861D86188A88
:100650001F8661E070E0CE0101960E94580162E0C1
:1006600070E0CE0101960E945801CE0101960E94D1
:10067000830163E070E0CE0101960E945801CE0133
:1006800001960E9483019C01990F440B550B1FE3B7
:10069000E12EF12C00E010E062E070E080E090E0FC
:1006A0000E94A402CE0101960E9483019C01990F31
:1006B000440B550B10E4E12EF12C00E010E063E058
:1006C00070E080E090E00E94A40260960FB6F8947B
:1006D000DEBF0FBECDBFDF91CF911F910F91FF9075
:1006E000EF900895EF92FF920F931F93CF93DF93B4
:1006F000CDB7DEB760970FB6F894DEBF0FBECDBFA3
:100700001C861B861E861D86188A1F8661E070E087
:10071000CE0101960E945801CE0101960E948301EC
:100720009C01990F440B550B1EE1E12EF12C00E0CA
:1007300010E061E070E080E090E00E94A40260962A
:100740000FB6F894DEBF0FBECDBFDF91CF911F91E2
:100750000F91FF90EF900895AB01BC018091C5020D
:100760009091C602A091C702B091C802892B8A2B32
:100770008B2B61F48091C9029091CA02A091CB02A7
:10078000B091CC02892B8A2B8B2B31F061E070E089
:100790008DEC92E00E94E6088091AD029091AE024D
:1007A0000E94820287E691E00E94D2018AE390E0F3
:1007B0000E949E018091B1029091B202892BF1F0CA
:1007C0008DE591E00E94D2018091B1029091B20238
:1007D0000E940B028091B3029091B402892B51F0D8
:1007E00082E591E00E94D2018091B3029091B4021F
:1007F0000E940B028FE491E00E94D2018DE791E00C
:100800000E94D20181E090E0A0E0B0E08093C502B8
:100810009093C602A093C702B093C80280E192E011
:100820000E943801B3CFEF92FF920F931F93CF93A3
:10083000DF93CDB7DEB760970FB6F894DEBF0FBE7B
:10084000CDBF1C861B861E861D86188A1F8661E00A
:1008500070E0CE0101960E94580162E070E0CE0186
:1008600001960E94580163E070E0CE0101960E945B
:10087000580164E070E0CE0101960E94580165E0E5
:1008800070E0CE0101960E94580166E070E0CE0152
:1008900001960E94580167E070E0CE0101960E9427
:1008A00058018F859889059731F06DE770E080E0F9
:1008B00090E00E94AC03CE0101960E9483019C014E
:1008C000990F440B550B1EE7E12EF12C00E010E0D0
:1008D00063E070E080E090E00E94A402CE01019607
:1008E0000E9483019C01990F440B550B1FE7E12ED9
:1008F000F12C00E010E064E070E080E090E00E9405
:10090000A402CE0101960E9483019C01990F440B21
:10091000550B10E8E12EF12C00E010E065E070E0EE
:1009200080E090E00E94A402CE0101960E94830123
:100930009C01990F440B550B11E8E12EF12C00E0BE
:1009400010E066E070E080E090E00E94A402CE013A
:1009500001960E9483019C01990F440B550B12E8EC
:10096000E12EF12C00E010E067E070E080E090E024
:100970000E94A4028F859889892B29F063E870E092
:1009800080E090E096CF60960FB6F894DEBF0FBE81
:10099000CDBFDF91CF911F910F91FF90EF90089500
:1009A000EF92FF920F931F93CF93DF93CDB7DEB7F4
:1009B00060970FB6F894DEBF0FBECDBF1C861B86B6
:1009C0001E861D86188A1F8661E070E0CE010196A2
:1009D0000E94580162E070E0CE0101960E94580129
:1009E00063E070E0CE0101960E94580164E070E07F
:1009F000CE0101960E94580165E070E0CE0101969B
:100A00000E945801CE0101960E948301CE010196F9
:100A10000E94830166E070E0CE0101960E945801B9
:100A200067E070E0CE0101960E9458018F85988999
:100A3000059731F06AE970E080E090E00E94AC0335
:100A4000CE0101960E9483019C01990F440B550B26
:100A50001BE9E12EF12C00E010E063E070E080E0A3
:100A600090E00E94A402CE0101960E9483019C01A5
:100A7000990F440B550B1CE9E12EF12C00E010E01E
:100A800064E070E080E090E00E94A402CE01019654
:100A90000E9483019C01990F440B550B1DE9E12E27
:100AA000F12C00E010E065E070E080E090E00E9452
:100AB000A402CE0101960E9483019C01990F440B70
:100AC000550B1EE9E12EF12C00E010E066E070E02D
:100AD00080E090E00E94A402CE0101960E94830172
:100AE0009C01990F440B550B1FE9E12EF12C00E0FE
:100AF00010E067E070E080E090E00E94A4028F8543
:100B00009889892B29F060EA70E080E090E096CF28
:100B100060960FB6F894DEBF0FBECDBFDF91CF91C8
:100B20001F910F91FF90EF900895CF93DF93CDB772
:100B3000DEB760970FB6F894DEBF0FBECDBF1C8640
:100B40001B861E861D86188A1F8661E070E0CE0116
:100B500001960E945801CE0101960E94830162E035
:100B600070E0CE0101960E94580163E070E0CE0172
:100B700001960E94580164E070E0CE0101960E9447
:100B80005801CE0101960E94830165E070E0CE011C
:100B900001960E94580166E070E0CE0101960E9425
:100BA000580167E070E0CE0101960E9458018F85E0
:100BB0009889059731F067E670E080E090E00E9448
:100BC000AC0360960FB6F894DEBF0FBECDBFDF91C9
:100BD000CF910895CF93DF93CDB7DEB760970FB66F
:100BE000F894DEBF0FBECDBF1C861B861E861D86F9
:100BF000188A1F8661E070E0CE0101960E945801BC
:100C000062E070E0CE0101960E945801CE0101968B
:100C10000E948301CE0101960E9483018F859889ED
:100C2000892B31F062E570E080E090E00E94AC0337
:100C300060960FB6F894DEBF0FBECDBFDF91CF91A7
:100C40000895CF93DF93CDB7DEB760970FB6F894D2
:100C5000DEBF0FBECDBF1C861B861E861D86188A72
:100C60001F8661E070E0CE0101960E94580162E0AB
:100C700070E0CE0101960E94580163E070E0CE0161
:100C800001960E94580164E070E0CE0101960E9436
:100C9000580165E070E0CE0101960E9458018F85F1
:100CA0009889892B31F46FE270E080E090E00E9437
:100CB000AC0360960FB6F894DEBF0FBECDBFDF91D8
:100CC000CF910895CF93DF93CDB7DEB760970FB67E
:100CD000F894DEBF0FBECDBF1C861B861E861D8608
:100CE000188A1F8661E070E0CE0101960E945801CB
:100CF00062E070E0CE0101960E94580160960FB646
:100D0000F894DEBF0FBECDBFDF91CF910895CF9392
:100D1000DF9300D0CDB7DEB79A838983EDEAF2E0A6
:100D200073836283052E000C660B770B4087518717
:100D30006287738784859585A685B7850196A11DF1
:100D4000B11D84879587A687B7871582148217827D
:100D500016828DEC92E00E94C608892B19F4E98175
:100D6000FA8109958DEC92E00E94C608EDEAF2E066
:100D7000848D958DA68DB78D892B8A2B8B2B11F1A8
:100D800084899589A689B7890196A11DB11D848B97
:100D9000958BA68BB78BEDEAF2E0108E118E128E3A
:100DA000138E148E158E168E178E8AE090E00E9498
:100DB0009E0180E192E00E9438010F900F90DF9138
:100DC000CF910895808D918DA28DB38D892B8A2B23
:100DD0008B2B69F440855185628573858081918173
:100DE0000E94820288E391E00E94D201D4CF8089E0
:100DF0009189A289B3890196A11DB11D808B918B28
:100E0000A28BB38BC8CF1F920F920FB60F921124F3
:100E10002F933F934F935F936F937F938F939F9302
:100E2000AF93BF93EF93FF9380E192E00E94C900DC
:100E3000FF91EF91BF91AF919F918F917F916F91B2
:100E40005F914F913F912F910F900FBE0F901F9088
:100E500018951F920F920FB60F9211242F938F9314
:100E60009F93EF93FF93E0912002F0912102808104
:100E7000E0912602F091270282FD1BC090818091B3
:100E800029028F5F8F7320912A02821741F0E0912F
:100E90002902F0E0E05FFD4F958F80932902FF91DA
:100EA000EF919F918F912F910F900FBE0F901F90F8
:100EB00018958081F4CF0C946602E0E1F2E0138291
:100EC000128288EE93E0A0E0B0E084839583A6834D
:100ED000B78381E491E09183808385EC90E09587EE
:100EE000848784EC90E09787868780EC90E0918BF4
:100EF000808B81EC90E0938B828B82EC90E0958BE1
:100F0000848B86EC90E0978B868B118E128E138EDD
:100F1000148E08952FEF87EA91E62150804090408B
:100F2000E1F700C0000086E991E09093AE02809363
:100F3000AD021092B0021092AF021092B502109260
:100F4000B6021092B7021092B8021092B902109233
:100F5000BA021092BB021092BC021092BD02109213
:100F6000BE021092BF021092C0021092C1021092F3
:100F7000C2021092C3021092C4021092C5021092D3
:100F8000C6021092C7021092C8021092C9021092B3
:100F9000CA021092CB021092CC021092B2021092AE
:100FA000B1021092B4021092B302E0912002F091CB
:100FB000210282E08083E0911C02F0911D021082E8
:100FC000E0911E02F0911F0280E1808310922802BE
:100FD000E0912402F091250286E08083E0912202D4
:100FE000F0912302808180618083E0912202F09160
:100FF0002302808188608083E0912202F0912302A5
:10100000808180688083E0912202F09123028081B8
:101010008F7D80834EEA50E069EA71E085E193E0DC
:101020000E9487064FEA50E06AEB71E08AEE95E095
:101030000E94870641EB50E069EC71E082E696E0A1
:101040000E94870642EB50E064ED71E085E995E08F
:101050000E94870643EB50E062EE71E083E194E08A
:101060000E94870644EB50E061EF71E082E793E075
:101070000E94870645EB50E06AEF71E081E296E05E
:101080000E94870646EB50E065E072E080ED94E058
:101090000E9487068AE090E00E949E0180E291E033
:1010A0000E94D2018AE090E00E949E016091B90204
:1010B0007091BA028091BB029091BC020E946602BC
:1010C00088E191E00E94D2016091BD027091BE0260
:1010D0008091BF029091C0020E9466028DE091E073
:1010E0000E94D2016091C1027091C2028091C3023C
:1010F0009091C4020E94660283E091E00E94D201B6
:101100008AE090E00E949E018091BD029091BE0213
:10111000A091BF02B091C002892B8A2B8B2B99F52D
:1011200080E091E00E94D2018AE090E00E949E015E
:1011300080E192E00E94380180E192E00E94380153
:10114000E0912202F091230280818F7E8083E091E2
:101150002202F09123028081877F8083E091220226
:10116000F091230280818F778083E0912202F091B9
:10117000230280818F7D808380912A0280932902BF
:1011800090E080E0089587E691E0CCCFDC012D92DD
:101190003D924D925D926D927D928D929D92AD9217
:1011A000BD92CD92DD92ED92FD920D931D93CD9364
:1011B000DD93FF91EF918DB78D938EB78D938FB7A0
:1011C0008D93ED93FD93882799270994DC01CB013A
:1011D00081309105811D2D903D904D905D906D90D9
:1011E0007D908D909D90AD90BD90CD90DD90ED90D7
:1011F000FD900D911D91CD91DD91ED91FD910D90A1
:10120000F894FEBF0FBEEDBFED91FD91099497FBE1
:10121000072E16F4009407D077FD09D00E944809E4
:1012200007FC05D03EF4909581959F4F08957095E9
:1012300061957F4F0895A1E21A2EAA1BBB1BFD01E9
:101240000DC0AA1FBB1FEE1FFF1FA217B307E407A5
:10125000F50720F0A21BB30BE40BF50B661F771FFD
:10126000881F991F1A9469F76095709580959095DD
:101270009B01AC01BD01CF0108950E946209A59FA9
:10128000900DB49F900DA49F800D911D1124089581
:10129000AA1BBB1B51E107C0AA1FBB1FA617B7079C
:1012A00010F0A61BB70B881F991F5A95A9F78095B8
:1012B0009095BC01CD010895EE0FFF1F0590F491AC
:1012C000E02D0994A29FB001B39FC001A39F700DB0
:1012D000811D1124911DB29F700D811D1124911D3E
:0612E0000895F894FFCF11
:1012E6004F4B002049676E6F72656420002046618F
:1012F600696C7572657320002054657374732000E1
:101306002D2D2D2D2D2D2D2D2D2D2D2D2D2D2D2D07
:101316002D2D2D2D2D2D2D00504153530000000055
:1013260000EB005F008C003801BD009B00AF002E73
:10133600200020417267756D656E74200046756EDB
:101346006374696F6E20004641494C0020576173F3
:101356002000204578706563746564200020457818
:101366007065637465642054525545205761732037
:1013760046414C534500746573745C746573745FC1
:101386006D61696E2E63707000746573745F6E6F45
:10139600726D616C5F666C6F7700746573745F75F0
:1013A6006E646572666C6F7700746573745F7265E0
:1013B60073657400746573745F6F766572666C6FBF
:1013C6007700746573745F6F76657277726974659A
:1013D60000746573745F70757400746573745F650B
:1013E6006D70747900746573745F615F6C6F7400FF
:00000001FF
