:100000000C9435000C945D000C945D000C945D0024
:100010000C945D000C945D000C945D000C945D00EC
:100020000C945D000C945D000C945D000C945C02DB
:100030000C945D000C945D000C945D000C945D00CC
:100040000C94BA010C945D000C942A020C940402E6
:100050000C945D000C945D000C945D000C945D00AC
:100060000C945D000C945D00EB0211241FBECFEFD9
:10007000D8E0DEBFCDBF11E0A0E0B1E0EEE1F8E0F6
:1000800002C005900D92A631B107D9F721E0A6E193
:10009000B1E001C01D92AB3CB207E1F710E0C5E34F
:1000A000D0E004C02197FE010E940704C433D107A9
:1000B000C9F70E941F030C940D040C940000AF922A
:1000C000BF92CF92DF92EF92FF920F931F93CF9345
:1000D000DF936C017B018B01040F151FEB015E01A7
:1000E000AE18BF08C017D10759F06991D601ED913C
:1000F000FC910190F081E02DC6010995892B79F7DB
:10010000C501DF91CF911F910F91FF90EF90DF908C
:10011000CF90BF90AF900895FC01538D448D252F53
:1001200030E0842F90E0821B930B541710F0CF9691
:10013000089501970895FC01918D828D981761F0C3
:10014000A28DAE0FBF2FB11D5D968C91928D9F5FDA
:100150009F73928F90E008958FEF9FEF0895FC01B9
:10016000918D828D981731F0828DE80FF11D858D6C
:1001700090E008958FEF9FEF0895FC01918D228DFF
:10018000892F90E0805C9F4F821B91098F73992784
:1001900008958FE191E00E94BD0021E0892B09F4D0
:1001A00020E0822F089580E090E0892B29F00E94C2
:1001B000C90081110C9400000895FC01A48DA80FC2
:1001C000B92FB11DA35ABF4F2C91848D90E0019699
:1001D0008F739927848FA689B7892C93A089B189B9
:1001E0008C91837080648C93938D848D981306C05A
:1001F0000288F389E02D80818F7D80830895EF92BE
:10020000FF920F931F93CF93DF93EC0181E0888FD0
:100210009B8D8C8D98131AC0E889F989808185FFA0
:1002200015C09FB7F894EE89FF896083E889F98942
:1002300080818370806480839FBF81E090E0DF9144
:10024000CF911F910F91FF90EF900895F62E0B8D97
:1002500010E00F5F1F4F0F731127E02E8C8D8E1152
:100260000CC00FB607FCFACFE889F989808185FFB9
:10027000F5CFCE010E94DD00F1CFEB8DEC0FFD2F0D
:10028000F11DE35AFF4FF0829FB7F8940B8FEA8974
:10029000FB8980818062CFCFCF93DF93EC01888D83
:1002A0008823B9F0AA89BB89E889F9898C9185FDF1
:1002B00003C0808186FD0DC00FB607FCF7CF8C917F
:1002C00085FFF2CF808185FFEDCFCE010E94DD005A
:1002D000E9CFDF91CF9108958F929F92AF92BF9215
:1002E0000F931F93CF93DF93CDB7DEB7A1970FB6D0
:1002F000F894DEBF0FBECDBF19A2423008F44AE029
:100300008E010F5D1F4F842E912CB12CA12CA501C5
:1003100094010E94E503E62FB901CA01EA3044F5D1
:10032000E05DD801EE938D01232B242B252B79F74B
:1003300090E080E0109769F0FD0101900020E9F75E
:100340003197AF014A1B5B0BBD018FE191E00E9429
:100350005F00A1960FB6F894DEBF0FBECDBFDF9150
:10036000CF911F910F91BF90AF909F908F90089564
:10037000E95CD7CF1F920F920FB60F9211242F93E3
:100380003F938F939F93AF93BF9380911B01909165
:100390001C01A0911D01B0911E0130911A0123E0B2
:1003A000230F2D3758F50196A11DB11D20931A0179
:1003B00080931B0190931C01A0931D01B0931E011B
:1003C0008091160190911701A0911801B091190127
:1003D0000196A11DB11D8093160190931701A09362
:1003E0001801B0931901BF91AF919F918F913F91E7
:1003F0002F910F900FBE0F901F90189526E8230F96
:100400000296A11DB11DD2CF1F920F920FB60F926F
:1004100011242F933F934F935F936F937F938F9309
:100420009F93AF93BF93EF93FF938FE191E00E946F
:10043000DD00FF91EF91BF91AF919F918F917F91DF
:100440006F915F914F913F912F910F900FBE0F9041
:100450001F9018951F920F920FB60F9211242F9391
:100460008F939F93EF93FF93E0912F01F0913001D1
:100470008081E0913501F091360182FD1BC09081B1
:10048000809138018F5F8F7320913901821741F07D
:10049000E0913801F0E0E15EFE4F958F80933801E6
:1004A000FF91EF919F918F912F910F900FBE0F9021
:1004B0001F9018958081F4CF1F920F920FB60F9264
:1004C0001124CF92DF92EF92FF922F933F934F939D
:1004D0005F936F937F938F939F93AF93BF93EF93AC
:1004E000FF938091CA012091C4013091C50195B15B
:1004F0002115310509F46CC0892B85B9C090BC0168
:10050000D090BD01C114D10409F44DC0D092C701EF
:10051000C092C6018091BE019091BF019093BD0130
:100520008093BC018091C0019091C1019093BF0163
:100530008093BE018091C2019091C3019093C1014B
:100540008093C0013093C3012093C2011092C50172
:100550001092C4018091C8019091C90101979093B4
:10056000C9018093C8010D2C000CEE08FF084AE079
:10057000C701B601F7FE0DC06DE28FE191E00E9468
:10058000FF0066277727CB016C197D098E099F092B
:100590004AE00E946C0142E050E062E171E08FE1CC
:1005A00091E00E945F00FF91EF91BF91AF919F9109
:1005B0008F917F916F915F914F913F912F91FF901C
:1005C000EF90DF90CF900F900FBE0F901F90189577
:1005D0008095892392CFEFE1F1E01382128288EEB9
:1005E00093E0A0E0B0E084839583A683B78384E0A2
:1005F00091E09183808385EC90E09587848784ECFB
:1006000090E09787868780EC90E0918B808B81ECDF
:1006100090E0938B828B82EC90E0958B848B86ECC0
:1006200090E0978B868B118E128E138E148E80E243
:100630008093CA011092C9011092C801089578945C
:1006400084B5826084BD84B5816084BD85B58260D7
:1006500085BD85B5816085BD80916E008160809388
:100660006E001092810080918100826080938100F1
:100670008091810081608093810080918000816001
:10068000809380008091B10084608093B10080915C
:10069000B00081608093B00080917A008460809384
:1006A0007A0080917A00826080937A0080917A004B
:1006B000816080937A0080917A00806880937A00CC
:1006C0001092C100E0912F01F091300182E080830F
:1006D000E0912B01F0912C011082E0912D01F0911D
:1006E0002E018FEC808310923701E0913301F0915D
:1006F000340186E08083E0913101F0913201808104
:1007000080618083E0913101F091320180818860C5
:100710008083E0913101F091320180818068808393
:10072000E0913101F091320180818F7D80831092C0
:10073000800010928100109285001092840088E061
:100740009DE3909389008093880080918100886068
:100750008093810080916F00826080936F00809110
:100760008100856080938100C0E0D0E08FE191E05E
:100770000E94BD0018161906FCF48FE191E00E945A
:100780009B009C012153310929303105A8F42091A7
:10079000C8013091C9012530310574F4F901EE0F1B
:1007A000FF1FE454FE4FC097918380832F5F3F4F1C
:1007B0003093C9012093C8012097C1F20E94C9005B
:1007C0008823A1F20E940000D1CFA1E21A2EAA1B19
:1007D000BB1BFD010DC0AA1FBB1FEE1FFF1FA217F1
:1007E000B307E407F50720F0A21BB30BE40BF50BEE
:1007F000661F771F881F991F1A9469F76095709577
:10080000809590959B01AC01BD01CF010895EE0F3D
:0E081000FF1F0590F491E02D0994F894FFCF9E
:10081E0000000000FF005F008C004C01BD009B003B
:06082E00AF000D0A0000FE
:00000001FF
